:020000042000DA
:1000000000000120910100207F03002081030020D7
:1000100083030020850300208703002000000000E8
:100020000000000000000000000000008903002024
:100030008B030020000000008D0300208F030020B0
:1000400091030020930300209503002097030020D4
:10005000990300209B0300209D0300209F030020A4
:10006000A1030020A3030020A5030020A703002074
:10007000A9030020AB030020AD030020AF03002044
:10008000B1030020B3030020B5030020F1040020D9
:10009000B9030020BB030020BD030020BF030020E4
:1000A000C1030020C3030020C5030020C7030020B4
:1000B000C9030020CB030020CD030020CF03002084
:1000C000D1030020D3030020D5030020D703002054
:1000D000D9030020DB030020DD030020DF03002024
:1000E000E1030020E3030020E5030020E7030020F4
:1000F000E9030020EB030020ED030020EF030020C4
:10010000F1030020F3030020F5030020F703002093
:10011000F9030020FB030020FD030020FF03002063
:10012000010400200304002005040020070400202F
:10013000090400200B0400200D0400200F040020FF
:1001400011040020130400201504002017040020CF
:10015000190400201B0400201D0400201F0400209F
:10016000210400202304002025040020270400206F
:10017000290400202B0400202D0400202F0400203F
:1001800031040020330400200000000000000000C3
:100190004FF0000BDFF8BE020068DFF8B612096806
:1001A00001F0030100F01C00142801D14BF0020BF8
:1001B000002901D04BF0010BBBF1000F05D0A7487F
:1001C000A749DFF8722200F09FF8A64880470BF09D
:1001D000020ABAF1000F0CD0DFF86E02DFF86E12DF
:1001E00002680B680FB44FF000024FF0FF0302608B
:1001F0000B609D484FF000024FF00103022808D128
:10020000DFF83A120A60DFF83E120A60DFF83212B5
:100210000B60012808D1DFF82A120A60DFF82612E5
:100220000A60DFF81A120B609048002809D1904844
:100230009049914A00F030F890489149914A00F075
:100240002BF891489149924A00F026F8914892493A
:10025000DFF8E22100F058F8BBF1000F10D08F4812
:100260008F49DFF8D62100F04FF80BF0020ABAF1FF
:10027000000F05D00FBC02600B6000BFAFF3008021
:10028000DFF820020FF2030E00474FF000004FF09E
:100290000001DFF814F2FEE72DE9F841884225D08D
:1002A000B2EB010200D5FEE740EA010313F00303BD
:1002B00002D000F01DF819E04FF000039046121133
:1002C000F7D09A421CBFF0C8F0C103F10103F8D186
:1002D00008F00F08B8F1000F08D004780C7000F196
:1002E000010001F10101B8F10108F6D1BDE8F88182
:1002F00008B54FF0000303780B7000F1010001F125
:100300000101013AF7D108BD884237D000F0030659
:10031000002E14D04FF00405A5EB06044FF008079B
:1003200007FB06F8914669FA08F9002C07D080F817
:10033000009069FA07F900F10100013CF5E74FF080
:1003400000060F46091A88460911914614461546BB
:10035000B14206D018BFA0E8340206F10106B1424E
:10036000F8D108F00F08B8F1000F07D002704FEA7B
:10037000322200F10100B8F10108F4E77047FEE70E
:10038000FEE7FEE7FEE7FEE7FEE7FEE7FEE7FEE745
:10039000FEE7FEE7FEE7FEE7FEE7FEE7FEE7FEE735
:1003A000FEE7FEE7FEE7FEE7FEE7FEE7FEE7FEE725
:1003B000FEE7FEE7FEE7FEE7FEE7FEE7FEE7FEE715
:1003C000FEE7FEE7FEE7FEE7FEE7FEE7FEE7FEE705
:1003D000FEE7FEE7FEE7FEE7FEE7FEE7FEE7FEE7F5
:1003E000FEE7FEE7FEE7FEE7FEE7FEE7FEE7FEE7E5
:1003F000FEE7FEE7FEE7FEE7FEE7FEE7FEE7FEE7D5
:10040000FEE7FEE7FEE7FEE7FEE7FEE7FEE7FEE7C4
:10041000FEE7FEE7FEE7FEE7FEE7FEE7FEE7FEE7B4
:10042000FEE7FEE7FEE7FEE7FEE7FEE7FEE7FEE7A4
:10043000FEE7FEE7704700000000A2A2A2A2008033
:100440000340088003401080034030800340348024
:1004500003403880034018080240000000F00020EC
:10046000000001200D0A0020000000000000000034
:10047000000000200000002090010020B0040020B7
:10048000B0040020600C0020600C0020600C0020F4
:10049000901000209010002000110020001100207A
:1004A00000F000200D0B0020C90A00200000000011
:1004B00010B5054C237833B9044B13B10448AFF39E
:1004C00000800123237010BD901000200000000068
:1004D000380C002008B5034B1BB103490348AFF3A8
:1004E000008008BD0000000094100020380C00209F
:1004F00080B582B000AF0F4B5B68FB710D4B9B6802
:10050000DAB2FB791340FB71FB7903F00203BB7194
:10051000BB79002B01D000F0E7F8FB7903F0010371
:100520007B717B79002B01D000F006F800BF083703
:10053000BD4680BD0060014080B584B000AF634B14
:100540001B78052B6DD0052B00F3AF80012B02D05B
:10055000022B39D0A9E05E4B1B889BB2002B2FD019
:100560005C4B1B685A4A128892B21146184600F03A
:1005700009FA7860564B1B889BB21A467B689342F7
:100580000FD2534B1B889AB27B689BB2D31A9AB294
:100590004F4B1A804F4B1A687B6813444D4A1360C7
:1005A00090E04B4B00221A804B4B1B68002B03D072
:1005B000464B02221A7085E0444B03221A7081E0F8
:1005C00000BE00F0B9F97DE0434B1B68002B24D03E
:1005D000424B1B68404A12681146184600F0D2F997
:1005E000B8603D4B1B68BA689A420CD23A4B1A6805
:1005F000BB68D31A384A1360384B1A68BB68134477
:10060000364A13605EE0364B9B68354A23F001039F
:1006100093602E4B03221A7054E000BE00F08CF958
:1006200050E02D4B1B68002B1BD12E4B1B68002B61
:1006300014D02C4B1B68294898470346264A136060
:10064000254B1B68002B0CD1254B9B68244A23F0BB
:10065000010393601D4B03221A7002E000BE00F0FC
:100660006BF91D4B1B68002B09D11D4B9B681C4A65
:1006700023F001039360154B03221A7022E0174BFD
:100680001B68154A12681146184600F07BF9F8609D
:10069000114B1A68FB68D31A0F4A13600F4B1A6884
:1006A000FB6813440D4A13600CE00D4B9B680C4A29
:1006B00023F001039360002000F01EF9034B002299
:1006C0001A7000BF00BF1037BD4680BDD11000209A
:1006D000B4100020B0100020BC100020B810002082
:1006E00000600140CC10002080B584B000AF7C4B8E
:1006F0001B69FB81FB8923F4FF4323F07F03BB814C
:10070000FB89FB72774B1B78052B00F2D68001A288
:1007100052F823F02D070020A7080020A70800208A
:1007200085070020D30700207B080020BB89002B11
:1007300000F0CA80FB7AF12B06D0FB7A7B717B79C3
:10074000184600F04FF9BFE0674B00221A80674B54
:100750001B68654A128892B21344FA7A1A70624B87
:100760001B889BB201339AB25F4B1A805F4B1B68A8
:100770005D4A128892B2134400221A70594B042227
:100780001A70A1E0BB89002B00F0A080FB7AFB71FE
:10079000574B1B78DBB2FA799A4215D1524B0022A3
:1007A0001A80524B1B68504A128892B21344FA794D
:1007B0001A704D4B1B889BB201339AB24A4B1A8078
:1007C000484B04221A7081E0FB79184600F00AF9C0
:1007D0007CE0BB89002B06D0FB7A3B723B7A184643
:1007E00000F000F974E0414B1A683F4B1B889BB244
:1007F000013B13441B78F12B16D13C4B1B683A4A42
:10080000128892B21344FA7A1A70384B1A68364B2F
:100810001B889BB2013B13441B78184600F0E2F89A
:10082000304B00221A7053E02F4B1B889AB2314B89
:100830001B889A4210D2FB7A7B722C4B1B682A4A87
:10084000128892B213447A7A1A70274B1B889BB293
:1008500001339AB2244B1A80234B1B889AB2254B42
:100860001B889A4234D1204B1B889BB2184600F05B
:1008700043F81C4B00221A702AE0BB89002B0BD1D5
:100880001A4B1B680133FA7A1A70022000F034F810
:10089000144B00221A701EE0FB7ABB72BB7A18461A
:1008A00000F0A0F817E0BB89002B13D0FB7ABB71D6
:1008B000BB79184600F096F80CE0002000F01CF818
:1008C000084B00221A7006E000BF04E000BF02E0FF
:1008D00000BF00E000BF00BF1037BD4680BD00BFB5
:1008E00000600140D1100020C6100020C010002080
:1008F000AC100020C410002080B582B000AF0346C9
:10090000FB800A4B1B68002B0CD0084B1B68084A65
:100910001268F98810469847044B00221A60054B6C
:1009200000221A7000BF0837BD4680BDC8100020E5
:10093000C0100020D010002080B582B000AF0E4B58
:100940001B78DBB2002B13D00C4B1B889BB21846D4
:10095000FFF7D2FF0A4B1B68094A43F001031360FB
:10096000074B1B6803F001037B607B68002BF7D10A
:1009700000BF0837BD4680BDD0100020C610002043
:100980000060014080B485B000AF78603960144BDE
:100990001B68134A23F0040313600023FB60104B11
:1009A0005B6803F00103BB600DE07A68FB681344E9
:1009B0001A780B4B1A61FB680133FB60084B5B68CC
:1009C00003F00103BB60BB68002B03D0FA683B68EF
:1009D0009A42EAD3FB6818461437BD4680BC70477C
:1009E0000060014080B582B000AF0346FB71064B4A
:1009F0001B68002B04D0044B1B68FA7910469847FB
:100A000000BF0837BD4680BDD410002080B500AFC0
:100A100000F030F8044B5B69034A43F40073536100
:100A2000FFF708FD00BF80BD00ED00E080B483B09B
:100A300000AF0E4BD3F84C313B603B684FF60202DF
:100A4000934204D03B680A4A934203D005E0012355
:100A50007B6005E002237B6002E000237B6000BF37
:100A60007B6818460C37BD4680BC70470080034049
:100A700002F8010080B582B000AFFFF7D7FF7860C1
:100A80007B68012B02D100F007F800E000BF00BF37
:100A90000837BD4680BD000080B400AF094BD3F8D5
:100AA0009830084A43F48073C2F89830054BD3F865
:100AB0009830044A23F08063C2F8983000BFBD46E6
:100AC00080BC70470080034080B483B000AF4FF01B
:100AD00040530F221A6000237B6002E07B680133E1
:100AE0007B607B68084A9342F8DD4FF04053002258
:100AF0001A6000233B6002E03B6801333B603B68C7
:100B0000014A9342F8DDE2E77F841E0070B50D4E86
:100B10000D4D761BB61006D0002455F8043B013469
:100B20009847A642F9D1094E094D00F085F8761B89
:100B3000B61006D0002455F8043B01349847A6426D
:100B4000F9D170BD500C0020500C0020580C002032
:100B5000500C0020024B13B1024800F005B870475A
:100B600000000000750B0020002301461A461846BD
:100B700000F01AB838B5084B084D5B1B9C1007D025
:100B8000043B1D44013C55F804399847002CF9D129
:100B9000BDE8384000F056B85C0C0020580C00202E
:100BA000704700BF704700BF2DE9F047DFF880A015
:100BB0000646DAF8000098460F469146FFF7F0FF28
:100BC0001A4B1B68D3F8484124B365681F2D26DCF7
:100BD0005EB96B1C0235DAF80000636044F82570DA
:100BE000FFF7E0FF0020BDE8F087012304EB85015B
:100BF000C1F88890D4F88821AB401A43022EC4F87B
:100C00008821C1F80881E4D1D4F88C211343C4F8B9
:100C10008C31DEE703F5A674C3F84841D5E7DAF86E
:100C20000000FFF7BFFF4FF0FF30DCE7340C00207F
:100C300088100020600C0020F8B500BFF8BC08BC8C
:100C40009E467047F8B500BFF8BC08BC9E4670478A
:100C5000550B0020D5040020B10400200000000046
:100C6000000000004C0F0020B40F00201C100020DA
:100C70000000000000000000000000000000000074
:100C80000000000000000000000000000000000064
:100C90000000000000000000000000000000000054
:100CA0000000000000000000000000000000000044
:100CB0000000000000000000000000000000000034
:100CC0000000000000000000000000000000000024
:100CD0000000000000000000000000000000000014
:100CE0000000000000000000000000000000000004
:100CF00000000000000000000000000000000000F4
:100D000000000000000000000100000000000000E2
:100D10000E33CDAB34126DE6ECDE05000B000000A7
:100D200000000000000000000000000000000000C3
:100D300000000000000000000000000000000000B3
:100D400000000000000000000000000000000000A3
:100D50000000000000000000000000000000000093
:101080000000000000000000D81000200000000058
:040000052000019145
:00000001FF
